S1048000007B
S123C000C715C6F7C71EC752C6FDC705C70DC760C778C770C780C7D2C7C8C7BCC7C1C7DB69
S123C020C7F3C841C803C813C823C8C9C8E9C8F5C909C71BC9ECC91FC934C929CA48CA5439
S123C040CA5FC951C93DC95BC965C975C9B6C9E2C9F1CA0DCA1CCA2BC9C2C9D2C9A7C98D81
S123C060CA74CA78CA7ECA8FCAA2CA95CAD8CAAACAE8CB4BCB60CB6ECB80CB23CB2DCB068C
S123C080CB36D708D6B4D6DED6F6D71BD72ED740D74BD763D788D798D739D7B3D7C7D7D299
S123C0A0D7A8D7DDD7E8D7F3D805D813D821D6C3D849D86ED859D82FDC9ADD78DD7CDDC105
S111C0C0DA1CCB39CB42D9F5DA2BDA3C00007E
S123C5000101010101CC0000FDFF028EFEFF7F003C8D1A20037EC6A0B680004A26F7CC806B
S123C52001CEC300ED008600A7097EC6A0CE002A4FA700088C003926F8CE10001C260886D7
S123C5403EA7097F00227F0023CC07C0DD261C39801D282086B0A72B860CA72D860597390D
S123C560BDDB10CC0000DD0CDD12DD148608970BCCC110DD16DD18DD1A8620B7C686CEC394
S123C58000C6208640A7098FC300108F5A26F6CEC300DF08CCC200ED00CCFE00ED04C30063
S123C5A001ED02830100ED06860AA7088620A709EF0CEF0EDC0CC30001DD0CED0ABDDA3C24
S123C5C0CEFF04A6002706BDDAE20820F6CE10001C200118CE3000180926FC1D20011D004D
S123C5E008CC0000DD26398D6B8D74816125F881732604863E2068368D513C18388D4C321A
S123C6008172270D8177270F816327118162271B39A6008D4A2010188FE700200A188FA497
S123C62000A700EA00E700863E2034188F373C32331B331B97015D270C8D19A7009B0197D6
S123C64001085A26F496018D1620DC8D07368D0416328F39B6102E842027F9B6102F39F6DC
S123C660102EC48027F9B7102F39DE08A608970A1AEE00EE0218E600F7C67F1808FCC000A2
S123C680FDC684BDFFFF20ED8620B7C686DC088FED021AEF00A60981402604EE0CDF0839BF
S123C6A0963C260CCE10001F2E2005BDC5E720F0120B02ECDE08EE0EDF088CC3002607DC7D
S123C6C01EC30001DD1EA609810026D4BDC66A810027CD814027C981202704860220028640
S123C6E0048D0220BB9701940B910126013996019A0B970B7EC65FEC02A300201CEC02A4BF
S123C70000E4012014EC02AA00EA01200CEC02A800E8012004EC00E302ED020808398D26EE
S123C720A601E6033DDD00A600E6033DDB00D700EC013DDB00D7007D000727064F5F9300FF
S123C74020D7DC0020D37F00078D6308088D5F090939BDC746EC023CEE0002DF003820D760
S123C760EC00A3022705CC000020AECC000120A9EC02A3002EF520EEEC02A3002DED20E655
S123C7803CEC002B1C26043808083937368605B7C795EC02380027030926FA380808ED00C2
S123C7A0394F5FA30037368604B7C79520E46D002A094F5FA300ED00730007396300630185
S123C7C0394F5FA300ED0039EC002705CC0001ED0039EC0027F64F5FED0039EC02E306DD09
S123C7E000E601E905A600A904ED04DC00ED06C6043A39EC06A302DD00E605E201A604A282
S123C8000020E6EC06A302E605E201A604A2002D1E2025EC02A306E601E205A600A2042DEF
S123C8200E2015EC06A302260FEC04A3002609C6063ACC0001ED0039C6063ACC0000ED006B
S123C840397F0007BDC8DF3CC6043ABDC8DFCE0000DF0038A603E6073DDD02A603E6063DA4
S123C860D301DD01960089009700A602E6073DD301DD01960089009700A603E6053DD3006E
S123C880DD00A602E6063DD300DD00A601E6073DD300DD00EC033DDB00D700A602E6053D07
S123C8A0DB00D700A601E6063DDB00D700A600E6073DDB00D700C6043ADC02ED02DC00ED24
S123C8C0007D000727028D0139CC0000A302DD00C600E2018600A200ED00DC00ED02396D63
S123C8E0002A058DE47300073918EC00180818080909ED003918EC020909ED0018EC001844
S123C9000818081808180820E718E600183A18A60009A70018095A26F518E600183A393C8B
S123C920CDEE00E600384F20C38FCDEE00EE028F0909ED008FCDEE00EE008F20AF18E6008C
S123C9403C3AEC00DD00EC02380909ED00DC00209D18E6003C3AEC003820933CA601CDEEED
S123C96000A70020083CEC00CDEE00ED0018083818080808393CEC00DD00EC02CDEE00EDB8
S123C98002DC00ED0038C6043A57183A39EC00DD00EC02D70718E6003C3AD607ED02DC00F9
S123C9A0ED0038080820C9EC00D70118E6003C3AD601ED0020B9A6013CEE02273FA7003868
S123C9C0202AA601B7C9CE3CEE0227301C00FF38201AA601B7C9DE3CEE0227201D00FF3838
S123C9E0200AEC003CEE022713ED00380808080839EC00DD00EC023CEE0426063886057EE7
S123CA00DDCDED02DC00ED0038080820DFEC003CEE0227E8E70038ED02080839EC003CEED5
S123CA200227D9ED0038ED02080839EC00DD00EC023CEE0427C6ED02DC00ED0038EC02EDF6
S123CA4004DC00ED020808393CEE0027AFE6004F38ED00393CEE0027A3EC0038ED00393CAD
S123CA60EE002798EC00DD00EC02380909ED02DC00ED003918EE00391AEE00080839EC0097
S123CA80260618EE0008083918081808080839EC0026EF20F3EC0027EFCC0001ED0018EEB8
S123CAA00039EC0026E218EE0039EC00DD0018EC00DF04D3048F1AEE002705DC00ED0039BA
S123CAC0DE088640A7098621B7C686EC0C1AEE0E8FCDEF0C1AEF0E3918EC00DF00D3008F52
S123CAE01AEE0027DB080839EC00DD00EC02DD0218EC00DF04D3048F1AEE0227C3DC00ED3F
S123CB0000DC02ED0239DF00DE08DC00A306CDA300250718081808DE00391809DE00860445
S123CB207EDDCD8F18E3008F18081808393C323318E3007EC8ECEE0039EC00DD3A08081817
S123CB400839DC3A0909ED00180839EC003CEE021AA300382427E302C30002ED02080839E8
S123CB60EC003CEE021AA3003824120520E8EC003CEE021AA300382404050520D97EDDC707
S123CB80EC003CEE021AA3003824F218A60018083D20C33CBDD624CE00003CDF3DDF3F7FBA
S123CBA000411830CDEE06A600BDCCEB2528812D260B73004108A600BDCCEB2519812E26F8
S123CBC00B08A600BDCCEB24037ECC593131BDD62E38860F0D39A600BDCCEB2477BDCC6A7C
S123CBE00824F37C003DA60008BDCCEB25F5812E260AA600BDCCEB24030820F681452707EB
S123CC00816527037ECCAD08A600BDCCEB2515812D2706812B270520B318630008A600BD41
S123CC20CCEB24A8803018A70108A600BDCCEB241418E601585818EB015880301B18A7010D
S123CC40088126228718A601186D002A01409B3D973D2059812E26A408A600BDCCEB249C49
S123CC608D0808258D7A003D20EF963E9743DC3FDD440579003E252C0579003E2526D34486
S123CC8036963E9943973E32251A0579003EDD3F2512E600C0304FD33FDD3F963E89002580
S123CCA003973E39DC44DD3F9643973E39CDEF06CE003DBDCD16272C963D18A70186969736
S123CCC03DBDCCF7186D01271B2A0BCECD21BDD6571860012006CECD25BDD657BDCD3518D0
S123CCE06A0126F83131BDD62E383981302506813922020D390C39CE003D8D1A27147D0064
S123CD003E2B0FDC3F7A003D270A0579003E2AF5DD3F0C390D393736EC002602EC0232333E
S123CD20393DCCCCCD41200000BDCFD1BDD624BDCEA0BDD62E7D003D27057D0042260ACC12
S123CD4000009741DD3DDD3F39964198469741963D9B422A0924168606CEFFFF2009250D2B
S123CD608607CE0000DF40DF3DDF3F0D398B82973DCE00003C3C30BDCDAE6D002B0B690317
S123CD806902690169007A003D6D032A13A6024CA702260CC601E3002404467C003DED0060
S123CDA038DF3E329740317D003D27B45F399645D6403DA7019644D6403DE300ED00964505
S123CDC0D63F3DE300A70324026C026F006F019643D6403DE302ED029644D63F3DE302EDFF
S123CDE00224026C019645D63E3DE302ED0224026C019643D63F3DE301ED0124026C0096E2
S123CE0044D63E3DE301ED0124026C009643D63E3DE300ED0039BDD624CED350BDD6577DD3
S123CE2000412703730046BDCED2BDD62E4FD63DC17F24035F201B53C3FF902F178FDC3EB5
S123CE402001040926FC7D00412A074353C300012A020C3986090D39CC0000DD004FD63DE4
S123CE60C17F24035F203353C3FFA02F2F8F96405FDD00DC3E200704760000760001092680
S123CE80F67D00412A147300007300014353DE0008DF002605C300012A020C3986090D3925
S123CEA0BDD2B8CE0045964280972A1BC6038B082A096F00095A26F66F0039C6804A2B03FD
S123CEC05720FAE400E7008D028D07964688FF974639963D260EDC42DD3DDC44DD3F96461F
S123CEE097415F397D004227F9D641D84690422510811822ED183C36CE004318CE003E201C
S123CF001740811822D0183C369642973D96469741CE003E18CE004317363636A80036175E
S123CF20A8013617A8023630A606E7061684074CC4185454543AE6034A27095666026601C7
S123CF40660020F45618A602A900974018A601A901973F18A600A902973E30A6062B152400
S123CF605A76003E76003F7600407C003D264CCCCD572053251B73004170004024087C005A
S123CF803F26037C003E70003F24037C003E70003E7D003E2B252613963D80082326973D71
S123CFA0DC3F27207F0040DD3E20E67A003D271478004079003F79003E2AF01AEE07C6091A
S123CFC03A355F39CCCD601AEE07ED07C6073A35399646984197417D0042260586087ECD85
S123CFE0597D003D26055F7F004139963D904224052B057ECD602B1F8B7E973DDC3E9343D7
S123D0002B182606964090452B10DC3E04760040DD3E7C003D26037ECD57DC3EDE430826DB
S123D020010903183C18DE3EDF3E3CCE00003C3C309645D63F3DA703BDCDD818DF3EDC3FFF
S123D040A301DE4303DF3F7F003E383832331838D33EDD3E5F393CCE003DBDCD16260738F4
S123D060CC3000ED0039DE3D3CDE3F3C964136BDD624CE00003C3C3C1830CDEE0F86207D5F
S123D080004127057F0041862DA70008CDEF00CED1C0BDD657BDD1C42E19CED1BCBDD6571A
S123D0A0BDD1C42E16186A02CECD25BDD657BDCD3520DC186C02CECD2120F0CED350BDD617
S123D0C057BDCED2D63DC07F50CB17200A74003E76003F7600405A26F4860118A70318A652
S123D0E0028B082B0A810824064A18A7038602800218A702186D032E15862ECDEE00A700F7
S123D10008186D0327058630A70008CDEF00CED1A7860718A705186F04DC3FA301DD3F969B
S123D1203EA200973E2505186C0420EDDC3FE301DD3F963EA900973E18A6048B303CCDEE96
S123D14000A70008186A032605862EA70008CDEF0038080808186A0526BCCDEE0009A6002A
S123D160813027F90818E602272A8645A70008862BA7005D2A0550862DA70008CDEF004F66
S123D180CE000A02378FCB30CDEE00E7000833CB30E700086F00383838BDD62E329741380F
S123D1A0DF3F38DF3D38390F42400186A00027100003E800006400000A000001497423FE61
S123D1C04B18967F96462A12D6412A0EDC421A933D2617DC441A933F20109141260CDC3DCE
S123D1E01A93422605DC3F1A93440784F424028A080639CE008EC3000026057ECD6009058C
S123D2002AFCDD3E7F00408F9741D73D5F394D2AE24353C30001CEFF8E20DBCE009EC300BF
S123D22000261118DE0026037ECD600978000179000059492AF5DD3E960097408F9741D767
S123D2403D5F394D2AD57300007300014353DE0008DF002603C30001CEFF9E20C1CE003D23
S123D260BDCD162601397D00412A04860A0D39BDD624860436DE3F3CDE3D3C18308D39961D
S123D28042807E4C2A03442003448B7E9742BDCFD1BDCED27A003D8D1F18EC00DD3D18EC05
S123D2A002DD3F186A0426E6DC42DD3DDC44DD3F383831BDD62E5F39DC3DDD42DC3FDD44D8
S123D2C09641974639BDD624CED41FBDD657BDCFD1BDD62EDC3D1A8385B32B0B7D004126D5
S123D2E0037ECD577ECD60BDD6249641367F0041BDCEA0DC4227068086544C26FC5C37CEB7
S123D300D334BDD5E4CED330BDD6572003BDCD35306A0026F832324D2A0CBDD2B8CED578EE
S123D320BDD63EBDCFD1BDD62E5F39BDD62420EA402DF8543638EF1D37D00D0139500D01C2
S123D3403AB60B613C0888893D2AAAAB3E2AAAAB3F0000003F8000003F800000FFBDD379DA
S123D360BDCD357ED2D48D11BDD624CED41FBDD657BDCD35BDD62E5F3996412704860C0D0D
S123D38039963D27F8BDD6243C3C30BDD66F4FD63DC07F2A0143BDD20ECED41BBDD657BDED
S123D3A0CD3530BDD657BDD66F867F97423C3C30BDD67DCED578BDD63EBDCED230BDD65752
S123D3C0BDD66FCED417BDD63EBDCED230BDD657BDCFD130BDD66FBDD2B8BDCD35CED3FA16
S123D3E0BDD5E430BDD657BDCD35383830BDD657BDCED23838BDD62E5F393E1D89D93E3AF5
S123D4002E8C3E638E393E9249253ECCCCCD3F2AAAAB40000000FFBF8000003F3172183E91
S123D420DE5BD9860E0D39860D0D39BDD6249641367F0041CED578BDD657BDD1C42F07BD55
S123D440D32B86FF20014F363C3C30BDD66FBDD2B8BDCD35CED482BDD5E430BDD657BDCDB1
S123D460353838324D270CCED47EBDD657730041BDCED2BDD5CE329741BDD62E5F393FC96B
S123D4800FDBBCE2DD1B3D70F0F1BD8888893D9D89D9BDBA2E8C3DE38E39BE1249253E4C08
S123D4A0CCCDBEAAAAAB3F800000FFBDD6244F2005BDD62486F036CED596BDD6572003BDC3
S123D4C0CED2964126F92003BDCEC7BDD1C42EF88D61240930A6002B04880FA7008D542462
S123D4E00930A6002A04880FA7008D47240730A60088F0A700CED5DCBDD657BDCD35BDD232
S123D500B8BDCD353C3C30BDD67DA6042A05CED57D2003CED568BDD5E430A6044724037380
S123D52000414D2B06BDD657BDCD35383831BDD62E5F397A0042BDD1C42E020C397C004244
S123D540730041BDCED27A00420D39BDCEA0DC3DDE42DD42DF3DDC3FDE44DD44DF3F9641C2
S123D560D6469746D7415F393638EF1DB9500D013C088889BE2AAAAB3F800000FF37D00D09
S123D58001BAB60B613D2AAAABBF0000003F800000FF40490FDB43B40000BDD624BDD2B809
S123D5A0BDD4B1BDD54EBDD4ABBDCFD12407BDD62E860B0D39BDD62E5F397FFFFFFFBDD681
S123D5C024CED5DCBDD657BDCD35BDD62E39BDD624CED5E020EECED5927ED63E3C8EFA31FD
S123D5E042652EE18FDE3D3CDE3F3C8F9641363CCC0000DD3DDD3FDD40201030A602974656
S123D600EC03DD44EC05DD42BDCD3530EE00BDD657BDCED238C6043A3CA6004326DD30C668
S123D620073A3539383C3C8F3037367ED67D300808BDD65738313131316E00CED5787F005C
S123D64041EC02DD3FEC00052403730041973D27020D56D73E5F397F0046EC02DD44EC00E2
S123D660052403730046974227020D56D74339DC3FED02DC3D58D1414656ED0039DC44EDAD
S123D68002DC4258D1464656ED00397F00415F397D003E2705CC7F80DD3D4F5FDD3F397D91
S123D6A0003E27037300415F39BDD65708080808BDD63E393C183CEC00BDD20E18383809F4
S123D6C00920AC3C183C0808BDD63E0909EE00BDD056183838EC00ED0408080808393C180B
S123D6E03CBDD63EBDCE5818383824037EDDCDED00DC00ED02393C183CEC02DD00EC00BD6A
S123D700D2431838387ED66F3C183CBDD63EBDCE2D18383824037EDDCD205D3C183CBDD615
S123D720A9BDCED2183838080808087ED66F3C183CBDD6A9BDCEC720EBA6008880A70039BD
S123D7403C183CBDD6A9BDCD3520093C183CBDD6A9BDCFD118383824037EDDCD08080808F1
S123D7607ED66F3C183CBDD6A9BDD1C4183838260CCC0001080808080808ED0039080808CF
S123D7800808086F006F01393C183CBDD6A9BDD1C41838382BDB20E53C183CBDD6A9BDD14A
S123D7A0C41838382ECB20D53C183CBDD6A9BDD35D20A13C183CBDD63EBDD25D18383824B8
S123D7C0037EDDCD7ED66F3C183CBDD63EBDD2D420EA3C183CBDD63EBDD2C520DF3C183C45
S123D7E0BDD63EBDD37920D43C183CBDD63EBDD36620C93C183CBDD63EBDD42B0736BDD52B
S123D800BE320620B73C183CBDD63EBDD5CEBDD4AB20A93C183CBDD63EBDD5CEBDD4B1204E
S123D8209B3C183CBDD63EBDD5CEBDD59A208D8602E6019D47080839BDDB2FA600BDDC26E7
S123D840A601BDDC2608082003BDDB2FA600BDDC26A601BDDC26080839BDDB2F3CEE0086D9
S123D86002E60027059D470820F738080839183CDF00BDDA881A830051240C8621B7C686F2
S123D880DE001838180939DE00DC00C30002E300DD02830002DD04DE02EE000808A60026AB
S123D8A0037ED9E3812527037ED9D108A6008166261BDF02DE0409093CBDD63E380909DF4E
S123D8C004CEC100BDD056CEC1007ED9C38164267DDF0218CEC100DE040909DF04EC022A26
S123D8E00C862D18A7001808CC0000A302CE000A02378FCE000A02378FCE000A02378FCE67
S123D900000A02378FCE000A0237183C388601335D27064FCB30E70008334D27045D2706E2
S123D9204FCB30E70008334D27045D27064FCB30E70008334D27045D27064FCB30E70008CE
S123D94033CB30E700085FE700CEC10020758178262ADF02DE040909DF04A602BDDC0CBD31
S123D960DAD0257217BDDAD0256CA603BDDC0CBDDAD0256217BDDAD0255C2061816326117C
S123D980DF02DE040909DF04A603BDDAD02547204C8162261EDF02DE040909DF04E6031803
S123D9A0CE00085886308900BDDAD02529180926F2202A8173261ADF02DE040909DF04EEE4
S123D9C0020808A6002708BDDAD0250A0820F4200CBDDAD02409860ABDDAE22006DE0208D3
S123D9E07ED89DDE00DC00C30002E3008FCC0000ED001838393CDC14C300011A931426FB2B
S123DA00C30001CE0000081A931426FA8F380909ED00CC000C0909ED007EC71E0909090963
S123DA200FDC14ED02DC120EED0039EC0008083C183CEE00AD00183838ED00390F3C183C5E
S123DA40B6103C84402605CEFF002003CEBF003CC6C03A18CEE0871AEF0008083C32324D05
S123DA6026F538CCC500EDFECCDE47EDE2CCDE3AEDE0CE10006F226F248600A7211C2318BB
S123DA801C22181838380E39960B84082707CC00F0DD062016DC1893162307830001DD06FF
S123DAA02009CC00F09316D318DD06960B84102705CC00F02012DC1A93162305830001204C
S123DAC007CC00F09316D31A1A93062302DC06393736BDDA881A83000224040D32333932C6
S123DAE02001370F3CDE16088CC2002603CEC110DF16A700960B840827119C18260DDE188F
S123DB00088CC2002603CEC110DF1838330C0E39BDDBA9CC00389D478D2FC60C9D478D29DD
S123DB208D308D258601970F8608971C4F971DCC00019D478D13C6069D478D0DC68F9D472D
S123DB408D073918CE011E200418CE0B29180926FC39CC00409D478602CEDB69E6009D47E1
S123DB608DE1088CDBA926F439000A1F1F0E04000000001111110F010E00000000000C040D
S123DB800800000F11110F010E00000C0C000C0C0000000C0C000C040802000602020212AA
S123DBA00C00000A0E04000000CEDBBE18CE0047A60018A7000818088CDC0C26F339FF0053
S123DBC092CE10000F1D3C201D0010B700946F078104260F8601B710041C0010A6031D005D
S123DBE010201E8601B710041C0010A6031D001086FFA707B60094A704E7031C00101D0024
S123DC00101C3C20FE00920E3900000036840F8B30813A2B028B071632444444448B30810F
S123DC203A2B028B0739BDDC0C371686029D47339D4739CE000A02378FCE000A02378FCEF2
S123DC40000A02378FCE000A02378FCE000A02379D47CC00019D47CC00079D47CC008F9DF9
S123DC6047860233CB309D4733CB309D47C62E9D4733CB309D4733CB309D4733CB309D479F
S123DC80C66D9D47C6739D4739CC00029D478602E60027059D470820F739183CDF00CC7F0D
S123DCA0FFDD04CEC3001AEE0E188CC3002607CCE400DD06200518EC04DD06EC0693063CDB
S123DCC0DE00A300382B091A93042E04DF02DD04188CC3002705183C3820CBDC041A837FA8
S123DCE0FF260486012015CEC310A609814027158FC300108F8C620026F08602DE00183843
S123DD0018097EDDCD3C1838DE02EE0E1AEF0CCDEF0EDE021AEF0ECDEF0CEC068300011822
S123DD20ED04C30001DE00A30018ED06A60318A708EC0418ED00860018A709DC0CC300013F
S123DD40DD0C18ED0ADC00E306C30008EE068F09DF0018DF0218EE0436A60018A7003209F3
S123DD60180983000126F1DE0218081AEF02DE0009DC0CED00183839862020513CEC00DD77
S123DD8000CEC300EC0A1A9300270EEE0E8CC30026F238CC0001ED00399C082604387ECA3A
S123DDA0C0183C8640A7098621B7C686EC0C1AEE0E8FCDEF0C1AEF0E183838CC0000ED006E
S123DDC0398621B7C686391809860320003CDE084D2602861FA70997018621B7C686960194
S123DDE081202431CEDE17A6002708BDDAD025F70820F44FD601C00A25034C20F9CB0A8B15
S123DE0030BDDAD025FB178B30BDDAD025FB860ABDDAD025FB38390A52554E54494D452018
S123DE204552522000CE1000DC28E316ED161D237FB610008880B710003BCE1000DC26E3A5
S123DE401EED1E1D23F73BCE1000CC07D0E31CED1C1D23EFA62236A7220EDE1408DF142683
S123DE6005DE1208DF127A000A26058621B7C68686049D47848027037EDF529615843F2678
S123DE8040960F8101223A0F4FC6CF9D47DC1E1A8300642D0BCC0000DD1E961C880C971CF1
S123DEA0961C84082704C6002002C60786029D474FD611C1102502CB30CA809D470E7EDF12
S123DEC0529639840126037EDF52960F8102245EDE1A9C16277C088CC2002603CEC110DFCC
S123DEE01AE600960F81002634C10A26068601970F205F9611811F27594C97118111260781
S123DF004F37C6C09D4733C120250CC17F2208CEDF94C0203AE60086029D472035810126B4
S123DF200DD710FCDF829D478602970F2024810A2712CEDF82D60F3AEC009D47960F8B0222
S123DF40970F200E8600970F86019711D610C10A26B5963984042725CE1000962248240756
S123DF601C00108B0120031D0010972296234824071C00208B0120031D0020972332B710D5
S123DF80223B0001000600CF020000020011495557777FFF202122232425262728292A2B89
S123DFA0022D2E2F3031323334353637383904053C3D3E3F404142434445464748494A4B83
S123DFC04C4D4E4F505152535455565758595A5B5C5D5E5F60616263646566036869066B95
S123DFE06C6D6E6FF0F172737475767778017A7B7C7D7E7F18CE03E8180926FCCE10001F56
S123E000000433CC1BE61F00042C83000126F7203937368D56CC00029D47CEE03F8602E652
S123E0200027059D470820F732BDDC2632BDDC268602C6299D47CE10001C28204F06CF2AE0
S123E04048616C7465642A2028008D1FCEE05BBDDC89CE10001D23FB8D163B2D504F5745C2
S123E0605220474C495443482D20008601979039860E979039CE80004F5FE3008FC3000214
S10BE0808F8CFF0226F4393BEA
S123BFC0E087E087E087E087E087E087E087E087E087E087E087E087E087E087E087E087ED
S123BFE0DE3ADE47E087E087E087E087E087DFF4E087E087E087E087E087E087E087C50094
S123FFC0E087E087E087E087E087E087E087E087E087E087E087E087E087E087E087E087AD
S123FFE0DE3ADE47E087E087E087E087E087DFF4E087E087E087E087E087E087E087C50054
S105FF020000F9
S105FF00030AEE
S123FF0449432076332E312020202020202020205275672057617272696F722050726F0A76
S104FF2400D8
S9030000FC
