S1048000007B
S123C000C720C702C729C75DC708C710C718C76BC783C77BC78BC7DDC7D3C7C7C7CCC7E6B7
S123C020C7FEC84CC80EC81EC82EC8D4C8F4C900C914C726C9F7C92AC93FC934CA53CA5F88
S123C040CA6AC95CC948C966C970C980C9C1C9EDC9FCCA18CA27CA36C9CDC9DDC9B2C998D1
S123C060CA7FCA83CA89CA9ACAADCAA0CAE3CAB5CAF3CB56CB6BCB79CB8BCB2ECB38CB11DC
S123C080CB41D713D6BFD6E9D701D726D739D74BD756D76ED793D7A3D744D7BED7D2D7DDE8
S123C0A0D7B3D7E8D7F3D7FED810D81ED82CD6CED854D879D864D83ADCA5DD83DD87DDCC55
S111C0C0DA27CB44CB4DDA00DA36DA4700003B
S123C5000101010101CC0000FDFF028EFEFF7F003C8D21B67F008480888027037EC6ABB644
S123C52080004A26F7CC8001CEC300ED008600A7097EC6ABCE002A4FA700088C003926F847
S123C540CE1000860AB77F00970E86FF9722972397249725CC07C0DD261C39801D282086C9
S123C560B0A72B860CA72D86079739BDDB1BCC0000DD0CDD12DD148608970BCCC110DD166A
S123C580DD18DD1A8620B7C691CEC300C6208640A7098FC300108F5A26F6CEC300DF08CC5F
S123C5A0C200ED00CCFE00ED04C30001ED02830100ED06860AA7088620A709EF0CEF0EDC7A
S123C5C00CC30001DD0CED0ABDDA47CEFF04A6002706BDDAED0820F6CE10001C200118CE82
S123C5E03000180926FC1D20011D0008CC0000DD26398D6B8D74816125F881732604863E7F
S123C6002068368D513C18388D4C328172270D8177270F816327118162271B39A6008D4A97
S123C6202010188FE700200A188FA400A700EA00E700863E2034188F373C32331B331B97B4
S123C640015D270C8D19A7009B019701085A26F496018D1620DC8D07368D0416328F39B6F1
S123C660102E842027F9B6102F39F6102EC48027F9B7102F39DE08A608970A1AEE00EE0292
S123C68018E600F7C68A1808FCC000FDC68FBDFFFF20ED8620B7C691DC088FED021AEF003C
S123C6A0A60981402604EE0CDF0839963C260CCE10001F2E2005BDC5F220F0120B02ECDE01
S123C6C008EE0EDF088CC3002607DC1EC30001DD1EA609810026D4BDC675810027CD8140DE
S123C6E027C9812027048602200286048D0220BB9701940B910126013996019A0B970B7E57
S123C700C66AEC02A300201CEC02A400E4012014EC02AA00EA01200CEC02A800E80120041B
S123C720EC00E302ED020808398D26A601E6033DDD00A600E6033DDB00D700EC013DDB000C
S123C740D7007D000727064F5F930020D7DC0020D37F00078D6308088D5F090939BDC751B4
S123C760EC023CEE0002DF003820D7EC00A3022705CC000020AECC000120A9EC02A3002EE1
S123C780F520EEEC02A3002DED20E63CEC002B1C26043808083937368605B7C7A0EC02388B
S123C7A00027030926FA380808ED00394F5FA30037368604B7C7A020E46D002A094F5FA359
S123C7C000ED007300073963006301394F5FA300ED0039EC002705CC0001ED0039EC002720
S123C7E0F64F5FED0039EC02E306DD00E601E905A600A904ED04DC00ED06C6043A39EC06A0
S123C800A302DD00E605E201A604A20020E6EC06A302E605E201A604A2002D1E2025EC0243
S123C820A306E601E205A600A2042D0E2015EC06A302260FEC04A3002609C6063ACC000160
S123C840ED0039C6063ACC0000ED00397F0007BDC8EA3CC6043ABDC8EACE0000DF0038A687
S123C86003E6073DDD02A603E6063DD301DD01960089009700A602E6073DD301DD01960054
S123C88089009700A603E6053DD300DD00A602E6063DD300DD00A601E6073DD300DD00EC05
S123C8A0033DDB00D700A602E6053DDB00D700A601E6063DDB00D700A600E6073DDB00D7FC
S123C8C000C6043ADC02ED02DC00ED007D000727028D0139CC0000A302DD00C600E20186C9
S123C8E000A200ED00DC00ED02396D002A058DE47300073918EC00180818080909ED003965
S123C90018EC020909ED0018EC00180818081808180820E718E600183A18A60009A70018AD
S123C920095A26F518E600183A393CCDEE00E600384F20C38FCDEE00EE028F0909ED008F4E
S123C940CDEE00EE008F20AF18E6003C3AEC00DD00EC02380909ED00DC00209D18E6003C97
S123C9603AEC003820933CA601CDEE00A70020083CEC00CDEE00ED001808381808080839A4
S123C9803CEC00DD00EC02CDEE00ED02DC00ED0038C6043A57183A39EC00DD00EC02D7077A
S123C9A018E6003C3AD607ED02DC00ED0038080820C9EC00D70118E6003C3AD601ED00201D
S123C9C0B9A6013CEE02273FA70038202AA601B7C9D93CEE0227301C00FF38201AA601B7CA
S123C9E0C9E93CEE0227201D00FF38200AEC003CEE022713ED00380808080839EC00DD00F7
S123CA00EC023CEE0426063886057EDDD8ED02DC00ED0038080820DFEC003CEE0227E8E7C7
S123CA200038ED02080839EC003CEE0227D9ED0038ED02080839EC00DD00EC023CEE042701
S123CA40C6ED02DC00ED0038EC02ED04DC00ED020808393CEE0027AFE6004F38ED00393C5A
S123CA60EE0027A3EC0038ED00393CEE002798EC00DD00EC02380909ED02DC00ED003918BD
S123CA80EE00391AEE00080839EC00260618EE0008083918081808080839EC0026EF20F316
S123CAA0EC0027EFCC0001ED0018EE0039EC0026E218EE0039EC00DD0018EC00DF04D304BD
S123CAC08F1AEE002705DC00ED0039DE088640A7098621B7C691EC0C1AEE0E8FCDEF0C1AFD
S123CAE0EF0E3918EC00DF00D3008F1AEE0027DB080839EC00DD00EC02DD0218EC00DF04E7
S123CB00D3048F1AEE0227C3DC00ED00DC02ED0239DF00DE08DC00A306CDA30025071808E2
S123CB201808DE00391809DE0086047EDDD88F18E3008F18081808393C323318E3007EC88A
S123CB40F7EE0039EC00DD3A0808180839DC3A0909ED00180839EC003CEE021AA3003824A8
S123CB6027E302C30002ED02080839EC003CEE021AA3003824120520E8EC003CEE021AA383
S123CB8000382404050520D97EDDD2EC003CEE021AA3003824F218A60018083D20C33CBDE7
S123CBA0D62FCE00003CDF3DDF3F7F00411830CDEE06A600BDCCF62528812D260B7300415A
S123CBC008A600BDCCF62519812E260B08A600BDCCF624037ECC643131BDD63938860F0DFC
S123CBE039A600BDCCF62477BDCC750824F37C003DA60008BDCCF625F5812E260AA600BDD9
S123CC00CCF624030820F681452707816527037ECCB808A600BDCCF62515812D2706812B15
S123CC20270520B318630008A600BDCCF624A8803018A70108A600BDCCF6241418E6015851
S123CC405818EB015880301B18A701088126228718A601186D002A01409B3D973D205981E4
S123CC602E26A408A600BDCCF6249C8D0808258D7A003D20EF963E9743DC3FDD440579004E
S123CC803E252C0579003E2526D34436963E9943973E32251A0579003EDD3F2512E600C002
S123CCA0304FD33FDD3F963E89002503973E39DC44DD3F9643973E39CDEF06CE003DBDCDB6
S123CCC021272C963D18A7018696973DBDCD02186D01271B2A0BCECD2CBDD662186001207B
S123CCE006CECD30BDD662BDCD40186A0126F83131BDD639383981302506813922020D3960
S123CD000C39CE003D8D1A27147D003E2B0FDC3F7A003D270A0579003E2AF5DD3F0C390D9C
S123CD20393736EC002602EC023233393DCCCCCD41200000BDCFDCBDD62FBDCEABBDD6397A
S123CD407D003D27057D0042260ACC00009741DD3DDD3F39964198469741963D9B422A0977
S123CD6024168606CEFFFF2009250D8607CE0000DF40DF3DDF3F0D398B82973DCE00003CDD
S123CD803C30BDCDB96D002B0B69036902690169007A003D6D032A13A6024CA702260CC69A
S123CDA001E3002404467C003DED0038DF3E329740317D003D27B45F399645D6403DA701E5
S123CDC09644D6403DE300ED009645D63F3DE300A70324026C026F006F019643D6403DE316
S123CDE002ED029644D63F3DE302ED0224026C019645D63E3DE302ED0224026C019643D669
S123CE003F3DE301ED0124026C009644D63E3DE301ED0124026C009643D63E3DE300ED00A5
S123CE2039BDD62FCED35BBDD6627D00412703730046BDCEDDBDD6394FD63DC17F24035F05
S123CE40201B53C3FF902F178FDC3E2001040926FC7D00412A074353C300012A020C39866F
S123CE60090D39CC0000DD004FD63DC17F24035F203353C3FFA02F2F8F96405FDD00DC3E6D
S123CE802007047600007600010926F67D00412A147300007300014353DE0008DF002605E8
S123CEA0C300012A020C3986090D39BDD2C3CE0045964280972A1BC6038B082A096F0009C4
S123CEC05A26F66F0039C6804A2B035720FAE400E7008D028D07964688FF974639963D26A1
S123CEE00EDC42DD3DDC44DD3F964697415F397D004227F9D641D84690422510811822ED9D
S123CF00183C36CE004318CE003E201740811822D0183C369642973D96469741CE003E183E
S123CF20CE004317363636A8003617A8013617A8023630A606E7061684074CC418545454CA
S123CF403AE6034A27095666026601660020F45618A602A900974018A601A901973F18A6FE
S123CF6000A902973E30A6062B15245A76003E76003F7600407C003D264CCCCD62205325B6
S123CF801B73004170004024087C003F26037C003E70003F24037C003E70003E7D003E2B20
S123CFA0252613963D80082326973DDC3F27207F0040DD3E20E67A003D2714780040790032
S123CFC03F79003E2AF01AEE07C6093A355F39CCCD6B1AEE07ED07C6073A35399646984127
S123CFE097417D0042260586087ECD647D003D26055F7F004139963D904224052B057ECDA8
S123D0006B2B1F8B7E973DDC3E93432B182606964090452B10DC3E04760040DD3E7C003D8D
S123D02026037ECD62DC3EDE430826010903183C18DE3EDF3E3CCE00003C3C309645D63F59
S123D0403DA703BDCDE318DF3EDC3FA301DE4303DF3F7F003E383832331838D33EDD3E5FD5
S123D060393CCE003DBDCD21260738CC3000ED0039DE3D3CDE3F3C964136BDD62FCE0000AD
S123D0803C3C3C1830CDEE0F86207D004127057F0041862DA70008CDEF00CED1CBBDD662F9
S123D0A0BDD1CF2E19CED1C7BDD662BDD1CF2E16186A02CECD30BDD662BDCD4020DC186C3E
S123D0C002CECD2C20F0CED35BBDD662BDCEDDD63DC07F50CB17200A74003E76003F76008F
S123D0E0405A26F4860118A70318A6028B082B0A810824064A18A7038602800218A7021805
S123D1006D032E15862ECDEE00A70008186D0327058630A70008CDEF00CED1B2860718A7C8
S123D12005186F04DC3FA301DD3F963EA200973E2505186C0420EDDC3FE301DD3F963EA9DE
S123D14000973E18A6048B303CCDEE00A70008186A032605862EA70008CDEF0038080808B4
S123D160186A0526BCCDEE0009A600813027F90818E602272A8645A70008862BA7005D2A55
S123D1800550862DA70008CDEF004FCE000A02378FCB30CDEE00E7000833CB30E700086FF8
S123D1A000383838BDD63932974138DF3F38DF3D38390F42400186A00027100003E80000F8
S123D1C06400000A000001497423FE4B18967F96462A12D6412A0EDC421A933D2617DC44BA
S123D1E01A933F20109141260CDC3D1A93422605DC3F1A93440784F424028A080639CE0088
S123D2008EC3000026057ECD6B09052AFCDD3E7F00408F9741D73D5F394D2AE24353C30005
S123D22001CEFF8E20DBCE009EC30000261118DE0026037ECD6B0978000179000059492A91
S123D240F5DD3E960097408F9741D73D5F394D2AD57300007300014353DE0008DF00260383
S123D260C30001CEFF9E20C1CE003DBDCD212601397D00412A04860A0D39BDD62F86043640
S123D280DE3F3CDE3D3C18308D399642807E4C2A03442003448B7E9742BDCFDCBDCEDD7AA6
S123D2A0003D8D1F18EC00DD3D18EC02DD3F186A0426E6DC42DD3DDC44DD3F383831BDD607
S123D2C0395F39DC3DDD42DC3FDD449641974639BDD62FCED42ABDD662BDCFDCBDD639DC85
S123D2E03D1A8385B32B0B7D004126037ECD627ECD6BBDD62F9641367F0041BDCEABDC42B5
S123D30027068086544C26FC5C37CED33FBDD5EFCED33BBDD6622003BDCD40306A0026F8AA
S123D32032324D2A0CBDD2C3CED583BDD649BDCFDCBDD6395F39BDD62F20EA402DF8543627
S123D34038EF1D37D00D0139500D013AB60B613C0888893D2AAAAB3E2AAAAB3F0000003F31
S123D3608000003F800000FFBDD384BDCD407ED2DF8D11BDD62FCED42ABDD662BDCD40BDB6
S123D380D6395F3996412704860C0D39963D27F8BDD62F3C3C30BDD67A4FD63DC07F2A01D3
S123D3A043BDD219CED426BDD662BDCD4030BDD662BDD67A867F97423C3C30BDD688CED581
S123D3C083BDD649BDCEDD30BDD662BDD67ACED422BDD649BDCEDD30BDD662BDCFDC30BDCE
S123D3E0D67ABDD2C3BDCD40CED405BDD5EF30BDD662BDCD40383830BDD662BDCEDD383839
S123D400BDD6395F393E1D89D93E3A2E8C3E638E393E9249253ECCCCCD3F2AAAAB4000006E
S123D42000FFBF8000003F3172183EDE5BD9860E0D39860D0D39BDD62F9641367F0041CE50
S123D440D583BDD662BDD1CF2F07BDD33686FF20014F363C3C30BDD67ABDD2C3BDCD40CE58
S123D460D48DBDD5EF30BDD662BDCD403838324D270CCED489BDD662730041BDCEDDBDD5E7
S123D480D9329741BDD6395F393FC90FDBBCE2DD1B3D70F0F1BD8888893D9D89D9BDBA2EF4
S123D4A08C3DE38E39BE1249253E4CCCCDBEAAAAAB3F800000FFBDD62F4F2005BDD62F869B
S123D4C0F036CED5A1BDD6622003BDCEDD964126F92003BDCED2BDD1CF2EF88D612409301A
S123D4E0A6002B04880FA7008D54240930A6002A04880FA7008D47240730A60088F0A700D1
S123D500CED5E7BDD662BDCD40BDD2C3BDCD403C3C30BDD688A6042A05CED5882003CED515
S123D52073BDD5EF30A6044724037300414D2B06BDD662BDCD40383831BDD6395F397A003B
S123D54042BDD1CF2E020C397C0042730041BDCEDD7A00420D39BDCEABDC3DDE42DD42DF6A
S123D5603DDC3FDE44DD44DF3F9641D6469746D7415F393638EF1DB9500D013C088889BECA
S123D5802AAAAB3F800000FF37D00D01BAB60B613D2AAAABBF0000003F800000FF40490F88
S123D5A0DB43B40000BDD62FBDD2C3BDD4BCBDD559BDD4B6BDCFDC2407BDD639860B0D39CC
S123D5C0BDD6395F397FFFFFFFBDD62FCED5E7BDD662BDCD40BDD63939BDD62FCED5EB20E7
S123D5E0EECED59D7ED6493C8EFA3142652EE18FDE3D3CDE3F3C8F9641363CCC0000DD3DB4
S123D600DD3FDD40201030A6029746EC03DD44EC05DD42BDCD4030EE00BDD662BDCEDD384B
S123D620C6043A3CA6004326DD30C6073A3539383C3C8F3037367ED688300808BDD66238F0
S123D640313131316E00CED5837F0041EC02DD3FEC00052403730041973D27020D56D73E63
S123D6605F397F0046EC02DD44EC00052403730046974227020D56D74339DC3FED02DC3D8E
S123D68058D1414656ED0039DC44ED02DC4258D1464656ED00397F00415F397D003E2705BD
S123D6A0CC7F80DD3D4F5FDD3F397D003E27037300415F39BDD66208080808BDD649393CE7
S123D6C0183CEC00BDD219183838090920AC3C183C0808BDD6490909EE00BDD06118383806
S123D6E0EC00ED0408080808393C183CBDD649BDCE6318383824037EDDD8ED00DC00ED02FC
S123D700393C183CEC02DD00EC00BDD24E1838387ED67A3C183CBDD649BDCE381838382477
S123D720037EDDD8205D3C183CBDD6B4BDCEDD183838080808087ED67A3C183CBDD6B4BDE9
S123D740CED220EBA6008880A700393C183CBDD6B4BDCD4020093C183CBDD6B4BDCFDC186B
S123D760383824037EDDD8080808087ED67A3C183CBDD6B4BDD1CF183838260CCC0001082A
S123D7800808080808ED00390808080808086F006F01393C183CBDD6B4BDD1CF1838382B08
S123D7A0DB20E53C183CBDD6B4BDD1CF1838382ECB20D53C183CBDD6B4BDD36820A13C18F7
S123D7C03CBDD649BDD26818383824037EDDD87ED67A3C183CBDD649BDD2DF20EA3C183C12
S123D7E0BDD649BDD2D020DF3C183CBDD649BDD38420D43C183CBDD649BDD37120C93C18CD
S123D8003CBDD649BDD4360736BDD5C9320620B73C183CBDD649BDD5D9BDD4B620A93C1843
S123D8203CBDD649BDD5D9BDD4BC209B3C183CBDD649BDD5D9BDD5A5208D8602E6019D474B
S123D840080839BDDB3AA600BDDC31A601BDDC3108082003BDDB3AA600BDDC31A601BDDC13
S123D86031080839BDDB3A3CEE008602E60027059D470820F738080839183CDF00BDDA93B3
S123D8801A830051240C8621B7C691DE001838180939DE00DC00C30002E300DD0283000263
S123D8A0DD04DE02EE000808A60026037ED9EE812527037ED9DC08A6008166261BDF02DEF9
S123D8C00409093CBDD649380909DF04CEC100BDD061CEC1007ED9CE8164267DDF0218CE69
S123D8E0C100DE040909DF04EC022A0C862D18A7001808CC0000A302CE000A02378FCE00F7
S123D9000A02378FCE000A02378FCE000A02378FCE000A0237183C388601335D27064FCBF6
S123D92030E70008334D27045D27064FCB30E70008334D27045D27064FCB30E70008334D68
S123D94027045D27064FCB30E7000833CB30E700085FE700CEC10020758178262ADF02DE46
S123D960040909DF04A602BDDC17BDDADB257217BDDADB256CA603BDDC17BDDADB256217C6
S123D980BDDADB255C206181632611DF02DE040909DF04A603BDDADB2547204C8162261E22
S123D9A0DF02DE040909DF04E60318CE00085886308900BDDADB2529180926F2202A817306
S123D9C0261ADF02DE040909DF04EE020808A6002708BDDADB250A0820F4200CBDDADB24F7
S123D9E009860ABDDAED2006DE02087ED8A8DE00DC00C30002E3008FCC0000ED00183839C7
S123DA003CDC14C300011A931426FBC30001CE0000081A931426FA8F380909ED00CC000C17
S123DA200909ED007EC729090909090FDC14ED02DC120EED0039EC0008083C183CEE00AD1A
S123DA4000183838ED00390F3C183CB6103C84402605CEFF002003CEBF003CC6C03A18CE25
S123DA60E0B21AEF0008083C32324D26F538CCC500EDFECCDE52EDE2CCDE45EDE0CE1000D6
S123DA806F226F248600A7211C23181C22181838380E39960B84082707CC00F0DD06201664
S123DAA0DC1893162307830001DD062009CC00F09316D318DD06960B84102705CC00F0209B
S123DAC012DC1A931623058300012007CC00F09316D31A1A93062302DC06393736BDDA93E2
S123DAE01A83000224040D323339322001370F3CDE16088CC2002603CEC110DF16A7009697
S123DB000B840827119C18260DDE18088CC2002603CEC110DF1838330C0E39BDDBB4CC006A
S123DB20389D478D2FC60C9D478D298D308D258601970F8608971C4F971DCC00019D478D7F
S123DB4013C6069D478D0DC68F9D478D073918CE011E200418CE0B29180926FC39CC004093
S123DB609D478602CEDB74E6009D478DE1088CDBB426F439000A1F1F0E04000000001111EE
S123DB80110F010E00000000000C040800000F11110F010E00000C0C000C0C0000000C0CA3
S123DBA0000C0408020006020202120C00000A0E04000000CEDBC918CE0047A60018A700FD
S123DBC00818088CDC1726F339FF0092CE10000F1D3C201D0010B700946F078104260F8623
S123DBE001B710041C0010A6031D0010201E8601B710041C0010A6031D001086FFA707B6D8
S123DC000094A704E7031C00101D00101C3C20FE00920E3900000036840F8B30813A2B02C3
S123DC208B071632444444448B30813A2B028B0739BDDC17371686029D47339D4739CE0001
S123DC400A02378FCE000A02378FCE000A02378FCE000A02378FCE000A02379D47CC00014C
S123DC609D47CC00079D47CC008F9D47860233CB309D4733CB309D47C62E9D4733CB309D77
S123DC804733CB309D4733CB309D47C66D9D47C6739D4739CC00029D478602E60027059DBF
S123DCA0470820F739183CDF00CC7FFFDD04CEC3001AEE0E188CC3002607CCE400DD062075
S123DCC00518EC04DD06EC0693063CDE00A300382B091A93042E04DF02DD04188CC3002769
S123DCE005183C3820CBDC041A837FFF260486012015CEC310A609814027158FC300108F85
S123DD008C620026F08602DE00183818097EDDD83C1838DE02EE0E1AEF0CCDEF0EDE021AB0
S123DD20EF0ECDEF0CEC0683000118ED04C30001DE00A30018ED06A60318A708EC0418EDE6
S123DD4000860018A709DC0CC30001DD0C18ED0ADC00E306C30008EE068F09DF0018DF02D9
S123DD6018EE0436A60018A7003209180983000126F1DE0218081AEF02DE0009DC0CED003C
S123DD80183839862020513CEC00DD00CEC300EC0A1A9300270EEE0E8CC30026F238CC000A
S123DDA001ED00399C082604387ECACB183C8640A7098621B7C691EC0C1AEE0E8FCDEF0C3B
S123DDC01AEF0E183838CC0000ED00398621B7C691391809860320003CDE084D2602861FBA
S123DDE0A70997018621B7C691960181202431CEDE22A6002708BDDADB25F70820F44FD623
S123DE0001C00A25034C20F9CB0A8B30BDDADB25FB178B30BDDADB25FB860ABDDADB25FBFE
S123DE2038390A52554E54494D45204552522000CE1000DC28E316ED161D237FB61000882B
S123DE4080B710003BCE1000DC26E31EED1E1D23F73BCE1000CC07D0E31CED1C1D23EFA680
S123DE6022368408A7220EDE1408DF142605DE1208DF127A000A26058621B7C69186049D57
S123DE8047848027037EDF5F9615843F2640960F8101223A0F4FC6CF9D47DC1E1A83006424
S123DEA02D0BCC0000DD1E961C880C971C961C84082704C6002002C60786029D474FD611A6
S123DEC0C1102502CB30CA809D470E7EDF5F9639840126037EDF5F960F8102245EDE1A9CDC
S123DEE016277C088CC2002603CEC110DF1AE600960F81002634C10A26068601970F205F45
S123DF009611811F27594C9711811126074F37C6C09D4733C120250CC17F2208CEDFBFC0B8
S123DF20203AE60086029D4720358101260DD710FCDFAD9D478602970F2024810A2712CED0
S123DF40DFADD60F3AEC009D47960F8B02970F200E8600970F86019711D610C10A26B5D67F
S123DF600E96398404273E96224824068B01C8102002CA10972296234824068B01C82020D1
S123DF8002CA20972396244824068B01C8402002CA40972496254824068B01C8802002CA43
S123DFA0809725C8F0F77F0032B710223B0001000600CF020000020011495557777FFF20A8
S123DFC02122232425262728292A2B022D2E2F3031323334353637383904053C3D3E3F40C3
S123DFE04142434445464748494A4B4C4D4E4F505152535455565758595A5B5C5D5E5F600D
S123E000616263646566036869066B6C6D6E6FF0F172737475767778017A7B7C7D7E7F1894
S123E020CE03E8180926FCCE10001F000433CC1BE61F00042C83000126F7203937368D5646
S123E040CC00029D47CEE06A8602E60027059D470820F732BDDC3132BDDC318602C6299D49
S123E06047CE10001C28204F06CF2A48616C7465642A2028008D1FCEE086BDDC94CE100016
S123E0801D23FB8D163B2D504F57455220474C495443482D20008601979039860E979039A6
S116E0A0CE80004F5FE3008FC300028F8CFF0226F4393B8C
S123BFC0E0B2E0B2E0B2E0B2E0B2E0B2E0B2E0B2E0B2E0B2E0B2E0B2E0B2E0B2E0B2E0B23D
S123BFE0DE45DE52E0B2E0B2E0B2E0B2E0B2E01FE0B2E0B2E0B2E0B2E0B2E0B2E0B2C5004E
S123FFC0E0B2E0B2E0B2E0B2E0B2E0B2E0B2E0B2E0B2E0B2E0B2E0B2E0B2E0B2E0B2E0B2FD
S123FFE0DE45DE52E0B2E0B2E0B2E0B2E0B2E01FE0B2E0B2E0B2E0B2E0B2E0B2E0B2C5000E
S105FF020000F9
S105FF00030AEE
S123FF0449432076332E3120202020202020202048616E647920426F61726420312E320A4E
S104FF2400D8
S9030000FC
