S1048000007B
S123C000C723C705C72CC760C70BC713C71BC76EC786C77EC78EC7E0C7D6C7CAC7CFC7E987
S123C020C801C84FC811C821C831C8D7C8F7C903C917C729C9FAC92DC942C937CA56CA6257
S123C040CA6DC95FC94BC969C973C983C9C4C9F0C9FFCA1BCA2ACA39C9D0C9E0C9B5C99BA1
S123C060CA82CA86CA8CCA9DCAB0CAA3CAE6CAB8CAF6CB59CB6ECB7CCB8ECB31CB3BCB14AC
S123C080CB44D716D6C2D6ECD704D729D73CD74ED759D771D796D7A6D747D7C1D7D5D7E0B8
S123C0A0D7B6D7EBD7F6D801D813D821D82FD6D1D857D87CD867D83DDCADDD8BDD8FDDD410
S111C0C0DA2ACB47CB50DA03DA39DA4A000029
S123C5000101010101CC0000FDFF028EFEFF7F003C8D21B670008403880327037EC6AEB64A
S123C52080004A26F7CC8001CEC300ED008600A7097EC6AECE002A4FA700088C003926F844
S123C540CE1000860AB77000970E86FF9722972397249725CC07C0DD261C39801C09381D49
S123C560282086B0A72B860CA72D86079739BDDB23CC0000DD0CDD12DD148608970BCCC197
S123C58010DD16DD18DD1A8620B7C694CEC300C6208640A7098FC300108F5A26F6CEC3000C
S123C5A0DF08CCC200ED00CCFE00ED04C30001ED02830100ED06860AA7088620A709EF0CA0
S123C5C0EF0EDC0CC30001DD0CED0ABDDA4ACEFF04A6002706BDDAF50820F6CE10001C2085
S123C5E00118CE3000180926FC1D20011D0008CC0000DD26398D6B8D74816125F881732660
S123C60004863E2068368D513C18388D4C328172270D8177270F816327118162271B39A6A6
S123C620008D4A2010188FE700200A188FA400A700EA00E700863E2034188F373C32331BC2
S123C640331B97015D270C8D19A7009B019701085A26F496018D1620DC8D07368D0416328A
S123C6608F39B6102E842027F9B6102F39F6102EC48027F9B7102F39DE08A608970A1AEE04
S123C68000EE0218E600F7C68D1808FCC000FDC692BDFFFF20ED8620B7C694DC088FED024C
S123C6A01AEF00A60981402604EE0CDF0839963C260CCE10001F2E2005BDC5F520F0120BC1
S123C6C002ECDE08EE0EDF088CC3002607DC1EC30001DD1EA609810026D4BDC6788100279D
S123C6E0CD814027C9812027048602200286048D0220BB9701940B910126013996019A0BE9
S123C700970B7EC66DEC02A300201CEC02A400E4012014EC02AA00EA01200CEC02A800E81D
S123C720012004EC00E302ED020808398D26A601E6033DDD00A600E6033DDB00D700EC01FF
S123C7403DDB00D7007D000727064F5F930020D7DC0020D37F00078D6308088D5F09093971
S123C760BDC754EC023CEE0002DF003820D7EC00A3022705CC000020AECC000120A9EC02DA
S123C780A3002EF520EEEC02A3002DED20E63CEC002B1C26043808083937368605B7C7A3DD
S123C7A0EC02380027030926FA380808ED00394F5FA30037368604B7C7A320E46D002A0981
S123C7C04F5FA300ED007300073963006301394F5FA300ED0039EC002705CC0001ED0039E2
S123C7E0EC0027F64F5FED0039EC02E306DD00E601E905A600A904ED04DC00ED06C6043AB8
S123C80039EC06A302DD00E605E201A604A20020E6EC06A302E605E201A604A2002D1E202B
S123C82025EC02A306E601E205A600A2042D0E2015EC06A302260FEC04A3002609C6063A1A
S123C840CC0001ED0039C6063ACC0000ED00397F0007BDC8ED3CC6043ABDC8EDCE0000DF92
S123C8600038A603E6073DDD02A603E6063DD301DD01960089009700A602E6073DD301DD0D
S123C88001960089009700A603E6053DD300DD00A602E6063DD300DD00A601E6073DD30037
S123C8A0DD00EC033DDB00D700A602E6053DDB00D700A601E6063DDB00D700A600E6073DE5
S123C8C0DB00D700C6043ADC02ED02DC00ED007D000727028D0139CC0000A302DD00C60080
S123C8E0E2018600A200ED00DC00ED02396D002A058DE47300073918EC0018081808090922
S123C900ED003918EC020909ED0018EC00180818081808180820E718E600183A18A6000946
S123C920A70018095A26F518E600183A393CCDEE00E600384F20C38FCDEE00EE028F09090B
S123C940ED008FCDEE00EE008F20AF18E6003C3AEC00DD00EC02380909ED00DC00209D183D
S123C960E6003C3AEC003820933CA601CDEE00A70020083CEC00CDEE00ED001808381808CB
S123C9800808393CEC00DD00EC02CDEE00ED02DC00ED0038C6043A57183A39EC00DD00EC11
S123C9A002D70718E6003C3AD607ED02DC00ED0038080820C9EC00D70118E6003C3AD6014A
S123C9C0ED0020B9A6013CEE02273FA70038202AA601B7C9DC3CEE0227301C00FF38201A18
S123C9E0A601B7C9EC3CEE0227201D00FF38200AEC003CEE022713ED00380808080839EC73
S123CA0000DD00EC023CEE0426063886057EDDE0ED02DC00ED0038080820DFEC003CEE02D8
S123CA2027E8E70038ED02080839EC003CEE0227D9ED0038ED02080839EC00DD00EC023C24
S123CA40EE0427C6ED02DC00ED0038EC02ED04DC00ED020808393CEE0027AFE6004F38EDB6
S123CA6000393CEE0027A3EC0038ED00393CEE002798EC00DD00EC02380909ED02DC00ED99
S123CA80003918EE00391AEE00080839EC00260618EE0008083918081808080839EC0026C7
S123CAA0EF20F3EC0027EFCC0001ED0018EE0039EC0026E218EE0039EC00DD0018EC00DF96
S123CAC004D3048F1AEE002705DC00ED0039DE088640A7098621B7C694EC0C1AEE0E8FCD34
S123CAE0EF0C1AEF0E3918EC00DF00D3008F1AEE0027DB080839EC00DD00EC02DD0218ECB5
S123CB0000DF04D3048F1AEE0227C3DC00ED00DC02ED0239DF00DE08DC00A306CDA3002526
S123CB200718081808DE00391809DE0086047EDDE08F18E3008F18081808393C323318E3A1
S123CB40007EC8FAEE0039EC00DD3A0808180839DC3A0909ED00180839EC003CEE021AA3BB
S123CB6000382427E302C30002ED02080839EC003CEE021AA3003824120520E8EC003CEEE6
S123CB80021AA300382404050520D97EDDDAEC003CEE021AA3003824F218A60018083D20DC
S123CBA0C33CBDD632CE00003CDF3DDF3F7F00411830CDEE06A600BDCCF92528812D260B4C
S123CBC073004108A600BDCCF92519812E260B08A600BDCCF924037ECC673131BDD63C38DE
S123CBE0860F0D39A600BDCCF92477BDCC780824F37C003DA60008BDCCF925F5812E260A91
S123CC00A600BDCCF924030820F681452707816527037ECCBB08A600BDCCF92515812D275B
S123CC2006812B270520B318630008A600BDCCF924A8803018A70108A600BDCCF9241418D8
S123CC40E601585818EB015880301B18A701088126228718A601186D002A01409B3D973D9F
S123CC602059812E26A408A600BDCCF9249C8D0808258D7A003D20EF963E9743DC3FDD44CF
S123CC800579003E252C0579003E2526D34436963E9943973E32251A0579003EDD3F25122A
S123CCA0E600C0304FD33FDD3F963E89002503973E39DC44DD3F9643973E39CDEF06CE00D7
S123CCC03DBDCD24272C963D18A7018696973DBDCD05186D01271B2A0BCECD2FBDD6651829
S123CCE060012006CECD33BDD665BDCD43186A0126F83131BDD63C3839813025068139221B
S123CD00020D390C39CE003D8D1A27147D003E2B0FDC3F7A003D270A0579003E2AF5DD3FA6
S123CD200C390D393736EC002602EC023233393DCCCCCD41200000BDCFDFBDD632BDCEAEEB
S123CD40BDD63C7D003D27057D0042260ACC00009741DD3DDD3F39964198469741963D9B1D
S123CD60422A0924168606CEFFFF2009250D8607CE0000DF40DF3DDF3F0D398B82973DCEA4
S123CD8000003C3C30BDCDBC6D002B0B69036902690169007A003D6D032A13A6024CA70253
S123CDA0260CC601E3002404467C003DED0038DF3E329740317D003D27B45F399645D640D2
S123CDC03DA7019644D6403DE300ED009645D63F3DE300A70324026C026F006F019643D691
S123CDE0403DE302ED029644D63F3DE302ED0224026C019645D63E3DE302ED0224026C01B8
S123CE009643D63F3DE301ED0124026C009644D63E3DE301ED0124026C009643D63E3DE3E3
S123CE2000ED0039BDD632CED35EBDD6657D00412703730046BDCEE0BDD63C4FD63DC17F8F
S123CE4024035F201B53C3FF902F178FDC3E2001040926FC7D00412A074353C300012A02B4
S123CE600C3986090D39CC0000DD004FD63DC17F24035F203353C3FFA02F2F8F96405FDDBC
S123CE8000DC3E2007047600007600010926F67D00412A147300007300014353DE0008DFF9
S123CEA0002605C300012A020C3986090D39BDD2C6CE0045964280972A1BC6038B082A090E
S123CEC06F00095A26F66F0039C6804A2B035720FAE400E7008D028D07964688FF97463922
S123CEE0963D260EDC42DD3DDC44DD3F964697415F397D004227F9D641D8469042251081CB
S123CF001822ED183C36CE004318CE003E201740811822D0183C369642973D96469741CE6D
S123CF20003E18CE004317363636A8003617A8013617A8023630A606E7061684074CC41870
S123CF405454543AE6034A27095666026601660020F45618A602A900974018A601A90197FF
S123CF603F18A600A902973E30A6062B15245A76003E76003F7600407C003D264CCCCD654E
S123CF802053251B73004170004024087C003F26037C003E70003F24037C003E70003E7DF1
S123CFA0003E2B252613963D80082326973DDC3F27207F0040DD3E20E67A003D2714780082
S123CFC04079003F79003E2AF01AEE07C6093A355F39CCCD6E1AEE07ED07C6073A3539968A
S123CFE046984197417D0042260586087ECD677D003D26055F7F004139963D904224052BD6
S123D000057ECD6E2B1F8B7E973DDC3E93432B182606964090452B10DC3E04760040DD3EF3
S123D0207C003D26037ECD65DC3EDE430826010903183C18DE3EDF3E3CCE00003C3C3096F7
S123D04045D63F3DA703BDCDE618DF3EDC3FA301DE4303DF3F7F003E383832331838D33EF2
S123D060DD3E5F393CCE003DBDCD24260738CC3000ED0039DE3D3CDE3F3C964136BDD632FB
S123D080CE00003C3C3C1830CDEE0F86207D004127057F0041862DA70008CDEF00CED1CE1D
S123D0A0BDD665BDD1D22E19CED1CABDD665BDD1D22E16186A02CECD33BDD665BDCD432091
S123D0C0DC186C02CECD2F20F0CED35EBDD665BDCEE0D63DC07F50CB17200A74003E7600D8
S123D0E03F7600405A26F4860118A70318A6028B082B0A810824064A18A703860280021811
S123D100A702186D032E15862ECDEE00A70008186D0327058630A70008CDEF00CED1B586CA
S123D1200718A705186F04DC3FA301DD3F963EA200973E2505186C0420EDDC3FE301DD3F95
S123D140963EA900973E18A6048B303CCDEE00A70008186A032605862EA70008CDEF00384F
S123D160080808186A0526BCCDEE0009A600813027F90818E602272A8645A70008862BA7C4
S123D180005D2A0550862DA70008CDEF004FCE000A02378FCB30CDEE00E7000833CB30E7E8
S123D1A000086F00383838BDD63C32974138DF3F38DF3D38390F42400186A0002710000366
S123D1C0E800006400000A000001497423FE4B18967F96462A12D6412A0EDC421A933D2609
S123D1E017DC441A933F20109141260CDC3D1A93422605DC3F1A93440784F424028A080658
S123D20039CE008EC3000026057ECD6E09052AFCDD3E7F00408F9741D73D5F394D2AE24311
S123D22053C30001CEFF8E20DBCE009EC30000261118DE0026037ECD6E0978000179000044
S123D24059492AF5DD3E960097408F9741D73D5F394D2AD57300007300014353DE0008DFE0
S123D260002603C30001CEFF9E20C1CE003DBDCD242601397D00412A04860A0D39BDD632D1
S123D280860436DE3F3CDE3D3C18308D399642807E4C2A03442003448B7E9742BDCFDFBD08
S123D2A0CEE07A003D8D1F18EC00DD3D18EC02DD3F186A0426E6DC42DD3DDC44DD3F3838A3
S123D2C031BDD63C5F39DC3DDD42DC3FDD449641974639BDD632CED42DBDD665BDCFDFBD9D
S123D2E0D63CDC3D1A8385B32B0B7D004126037ECD657ECD6EBDD6329641367F0041BDCE87
S123D300AEDC4227068086544C26FC5C37CED342BDD5F2CED33EBDD6652003BDCD43306AED
S123D3200026F832324D2A0CBDD2C6CED586BDD64CBDCFDFBDD63C5F39BDD63220EA402D79
S123D340F8543638EF1D37D00D0139500D013AB60B613C0888893D2AAAAB3E2AAAAB3F00EE
S123D36000003F8000003F800000FFBDD387BDCD437ED2E28D11BDD632CED42DBDD665BD2F
S123D380CD43BDD63C5F3996412704860C0D39963D27F8BDD6323C3C30BDD67D4FD63DC0A7
S123D3A07F2A0143BDD21CCED429BDD665BDCD4330BDD665BDD67D867F97423C3C30BDD6F0
S123D3C08BCED586BDD64CBDCEE030BDD665BDD67DCED425BDD64CBDCEE030BDD665BDCF4E
S123D3E0DF30BDD67DBDD2C6BDCD43CED408BDD5F230BDD665BDCD43383830BDD665BDCEA2
S123D400E03838BDD63C5F393E1D89D93E3A2E8C3E638E393E9249253ECCCCCD3F2AAAAB5B
S123D42040000000FFBF8000003F3172183EDE5BD9860E0D39860D0D39BDD6329641367F1C
S123D4400041CED586BDD665BDD1D22F07BDD33986FF20014F363C3C30BDD67DBDD2C6BD12
S123D460CD43CED490BDD5F230BDD665BDCD433838324D270CCED48CBDD665730041BDCE66
S123D480E0BDD5DC329741BDD63C5F393FC90FDBBCE2DD1B3D70F0F1BD8888893D9D89D921
S123D4A0BDBA2E8C3DE38E39BE1249253E4CCCCDBEAAAAAB3F800000FFBDD6324F2005BD7E
S123D4C0D63286F036CED5A4BDD6652003BDCEE0964126F92003BDCED5BDD1D22EF88D61DA
S123D4E0240930A6002B04880FA7008D54240930A6002A04880FA7008D47240730A600880B
S123D500F0A700CED5EABDD665BDCD43BDD2C6BDCD433C3C30BDD68BA6042A05CED58B200F
S123D52003CED576BDD5F230A6044724037300414D2B06BDD665BDCD43383831BDD63C5F39
S123D540397A0042BDD1D22E020C397C0042730041BDCEE07A00420D39BDCEAEDC3DDE42AC
S123D560DD42DF3DDC3FDE44DD44DF3F9641D6469746D7415F393638EF1DB9500D013C089B
S123D5808889BE2AAAAB3F800000FF37D00D01BAB60B613D2AAAABBF0000003F800000FF51
S123D5A040490FDB43B40000BDD632BDD2C6BDD4BFBDD55CBDD4B9BDCFDF2407BDD63C8670
S123D5C00B0D39BDD63C5F397FFFFFFFBDD632CED5EABDD665BDCD43BDD63C39BDD632CE61
S123D5E0D5EE20EECED5A07ED64C3C8EFA3142652EE18FDE3D3CDE3F3C8F9641363CCC00E5
S123D60000DD3DDD3FDD40201030A6029746EC03DD44EC05DD42BDCD4330EE00BDD665BD0E
S123D620CEE038C6043A3CA6004326DD30C6073A3539383C3C8F3037367ED68B300808BD77
S123D640D66538313131316E00CED5867F0041EC02DD3FEC00052403730041973D27020D58
S123D66056D73E5F397F0046EC02DD44EC00052403730046974227020D56D74339DC3FED3E
S123D68002DC3D58D1414656ED0039DC44ED02DC4258D1464656ED00397F00415F397D000C
S123D6A03E2705CC7F80DD3D4F5FDD3F397D003E27037300415F39BDD66508080808BDD638
S123D6C04C393C183CEC00BDD21C183838090920AC3C183C0808BDD64C0909EE00BDD064C4
S123D6E0183838EC00ED0408080808393C183CBDD64CBDCE6618383824037EDDE0ED00DC55
S123D70000ED02393C183CEC02DD00EC00BDD2511838387ED67D3C183CBDD64CBDCE3B1810
S123D720383824037EDDE0205D3C183CBDD6B7BDCEE0183838080808087ED67D3C183CBD8B
S123D740D6B7BDCED520EBA6008880A700393C183CBDD6B7BDCD4320093C183CBDD6B7BDD8
S123D760CFDF18383824037EDDE0080808087ED67D3C183CBDD6B7BDD1D2183838260CCC5C
S123D7800001080808080808ED00390808080808086F006F01393C183CBDD6B7BDD1D21894
S123D7A038382BDB20E53C183CBDD6B7BDD1D21838382ECB20D53C183CBDD6B7BDD36B2045
S123D7C0A13C183CBDD64CBDD26B18383824037EDDE07ED67D3C183CBDD64CBDD2E220EA96
S123D7E03C183CBDD64CBDD2D320DF3C183CBDD64CBDD38720D43C183CBDD64CBDD3742048
S123D800C93C183CBDD64CBDD4390736BDD5CC320620B73C183CBDD64CBDD5DCBDD4B92011
S123D820A93C183CBDD64CBDD5DCBDD4BF209B3C183CBDD64CBDD5DCBDD5A8208D8602E621
S123D840019D47080839BDDB42A600BDDC39A601BDDC3908082003BDDB42A600BDDC39A6A0
S123D86001BDDC39080839BDDB423CEE008602E60027059D470820F738080839183CDF0033
S123D880BDDA9B1A830051240C8621B7C694DE001838180939DE00DC00C30002E300DD02B3
S123D8A0830002DD04DE02EE000808A60026037ED9F1812527037ED9DF08A6008166261B2D
S123D8C0DF02DE0409093CBDD64C380909DF04CEC100BDD064CEC1007ED9D18164267DDF89
S123D8E00218CEC100DE040909DF04EC022A0C862D18A7001808CC0000A302CE000A02376C
S123D9008FCE000A02378FCE000A02378FCE000A02378FCE000A0237183C388601335D27B9
S123D920064FCB30E70008334D27045D27064FCB30E70008334D27045D27064FCB30E700D0
S123D94008334D27045D27064FCB30E7000833CB30E700085FE700CEC10020758178262A7D
S123D960DF02DE040909DF04A602BDDC1FBDDAE3257217BDDAE3256CA603BDDC1FBDDAE37D
S123D980256217BDDAE3255C206181632611DF02DE040909DF04A603BDDAE32547204C811A
S123D9A062261EDF02DE040909DF04E60318CE00085886308900BDDAE32529180926F22076
S123D9C02A8173261ADF02DE040909DF04EE020808A6002708BDDAE3250A0820F4200CBDAA
S123D9E0DAE32409860ABDDAF52006DE02087ED8ABDE00DC00C30002E3008FCC0000ED0064
S123DA001838393CDC14C300011A931426FBC30001CE0000081A931426FA8F380909ED0066
S123DA20CC000C0909ED007EC72C090909090FDC14ED02DC120EED0039EC0008083C183CDA
S123DA40EE00AD00183838ED00390F3C183CB6103C84402605CEFF002003CEBF003CC6C0AA
S123DA603A18CEE0BA1AEF0008083C32324D26F538CCC500EDFECCDE5AEDE2CCDE4DEDE07C
S123DA80CCE027EDEECE10006F226F248630A7211C239C1C221C1838380E39960B840827FC
S123DAA007CC00F0DD062016DC1893162307830001DD062009CC00F09316D318DD06960B5B
S123DAC084102705CC00F02012DC1A931623058300012007CC00F09316D31A1A93062302F8
S123DAE0DC06393736BDDA9B1A83000224040D323339322001370F3CDE16088CC2002603AE
S123DB00CEC110DF16A700960B840827119C18260DDE18088CC2002603CEC110DF18383304
S123DB200C0E39BDDBBCCC00389D478D2FC60C9D478D298D308D258601970F8608971C4FFE
S123DB40971DCC00019D478D13C6069D478D0DC68F9D478D073918CE011E200418CE0B2929
S123DB60180926FC39CC00409D478602CEDB7CE6009D478DE1088CDBBC26F439000A1F1F8A
S123DB800E04000000001111110F010E00000000000C040800000F11110F010E00000C0C9F
S123DBA0000C0C0000000C0C000C0408020006020202120C00000A0E04000000CEDBD1183F
S123DBC0CE0047A60018A7000818088CDC1F26F339FF0092CE10000F1D3C201D0010B700EB
S123DBE0946F078104260F8601B710041C0010A6031D0010201E8601B710041C0010A603A4
S123DC001D001086FFA707B60094A704E7031C00101D00101C3C20FE00920E3900000036E3
S123DC20840F8B30813A2B028B071632444444448B30813A2B028B0739BDDC1F37168602C5
S123DC409D47339D4739CE000A02378FCE000A02378FCE000A02378FCE000A02378FCE003E
S123DC600A02379D47CC00019D47CC00079D47CC008F9D47860233CB309D4733CB309D4726
S123DC80C62E9D4733CB309D4733CB309D4733CB309D47C66D9D47C6739D4739CC00029D9A
S123DCA0478602E60027059D470820F739183CDF00CC7FFFDD04CEC3001AEE0E188CC300D7
S123DCC02607CCE400DD06200518EC04DD06EC0693063CDE00A300382B091A93042E04DFFA
S123DCE002DD04188CC3002705183C3820CBDC041A837FFF260486012015CEC310A6098181
S123DD004027158FC300108F8C620026F08602DE00183818097EDDE03C1838DE02EE0E1AFA
S123DD20EF0CCDEF0EDE021AEF0ECDEF0CEC0683000118ED04C30001DE00A30018ED06A6E6
S123DD400318A708EC0418ED00860018A709DC0CC30001DD0C18ED0ADC00E306C30008EE90
S123DD60068F09DF0018DF0218EE0436A60018A7003209180983000126F1DE0218081AEF84
S123DD8002DE0009DC0CED00183839862020513CEC00DD00CEC300EC0A1A9300270EEE0EB7
S123DDA08CC30026F238CC0001ED00399C082604387ECACE183C8640A7098621B7C694EC43
S123DDC00C1AEE0E8FCDEF0C1AEF0E183838CC0000ED00398621B7C694391809860320007A
S123DDE03CDE084D2602861FA70997018621B7C694960181202431CEDE2AA6002708BDDA14
S123DE00E325F70820F44FD601C00A25034C20F9CB0A8B30BDDAE325FB178B30BDDAE325CB
S123DE20FB860ABDDAE325FB38390A52554E54494D45204552522000CE1000DC28E316ED29
S123DE40161D237FB610008880B710003BCE1000DC26E31EED1E1D23F73BCE1000CC07D03A
S123DE60E31CED1C1D23EFA6223684ACA7220EDE1408DF142605DE1208DF127A000A2605B2
S123DE808621B7C69486049D47848027037EDF679615843F2640960F8101223A0F4FC6CF1C
S123DEA09D47DC1E1A8300642D0BCC0000DD1E961C880C971C961C84082704C6002002C670
S123DEC00786029D474FD611C1102502CB30CA809D470E7EDF679639840126037EDF6796CB
S123DEE00F8102245EDE1A9C16277C088CC2002603CEC110DF1AE600960F81002634C10A75
S123DF0026068601970F205F9611811F27594C9711811126074F37C6C09D4733C120250C76
S123DF20C17F2208CEDFC7C0203AE60086029D4720358101260DD710FCDFB59D478602970F
S123DF400F2024810A2712CEDFB5D60F3AEC009D47960F8B02970F200E8600970F86019705
S123DF6011D610C10A26B5D60E96398404273E96224824068B01C8102002CA109722962364
S123DF804824068B01C8202002CA20972396244824068B01C8402002CA4097249625482403
S123DFA0068B01C8802002CA809725C8F0F7700032B710223B0001000600CF02000002000C
S123DFC011495557777FFF202122232425262728292A2B022D2E2F30313233343536373820
S123DFE03904053C3D3E3F404142434445464748494A4B4C4D4E4F50515253545556575879
S123E000595A5B5C5D5E5F60616263646566036869066B6C6D6E6FF0F172737475767778B4
S123E020017A7B7C7D7E7F18CE03E8180926FCCE10001F000433CC1BE61F00042C83000108
S123E04026F7203937368D56CC00029D47CEE0728602E60027059D470820F732BDDC393251
S123E060BDDC398602C6299D47CE10001C28204F06CF2A48616C7465642A2028008D1FCEA1
S123E080E08EBDDC9CCE10001D23FB8D163B2D504F57455220474C495443482D2000860179
S11EE0A0979039860E979039CE80004F5FE3008FC300028F8CFF0226F4393B30
S123BFC0E0BAE0BAE0BAE0BAE0BAE0BAE0BAE0BAE0BAE0BAE0BAE0BAE0BAE0BAE0BAE0BABD
S123BFE0DE4DDE5AE0BAE0BAE0BAE0BAE0BAE027E0BAE0BAE0BAE0BAE0BAE0BAE0BAC500D6
S123FFC0E0BAE0BAE0BAE0BAE0BAE0BAE0BAE0BAE0BAE0BAE0BAE0BAE0BAE0BAE0BAE0BA7D
S123FFE0DE4DDE5AE0BAE0BAE0BAE0BAE0BAE027E0BAE0BAE0BAE0BAE0BAE0BAE0BAC50096
S105FF020000F9
S105FF00030AEE
S123FF0449432076332E312020202020202020204D495420362E32373020322E32310A0011
S9030000FC
